:1000000000308A00DA2C0000FF00030E8301A100FB
:100010000A08A0008A010408A2007708A300780853
:10002000A4007908A5007A08A6007B08A70083131E
:1000300083128C308400001F1F280C1B32282208DA
:1000400084002308F7002408F8002508F900260892
:10005000FA002708FB0020088A00210E8300FF0E0B
:100060007F0E09008A110A12B9280A108A100A1193
:10007000820728340C34013406340A108A100A111D
:1000800082070C3420344134443443342034553412
:100090005934473455344C3441344D34413453345D
:1000A0004934203400340A108A100A1182070C34B3
:1000B00041344E34353420344B3461346E34613441
:1000C0006C34693400340A108A100A1182070C3427
:1000D000443469346A346934743461346C343D3482
:1000E00025346C34753400340A108A100A118207E2
:1000F0000A3456346F346C34743461346A343D34A9
:1001000025346634563400340A108A100A118207E6
:100110000C3441344E34363420344B3461346E3434
:1001200061346C34693400340A108A100A11820771
:100130000C3441344E34373420344B3461346E3413
:1001400061346C34693400344A308400831300080D
:100150000319B8280130F800F701F70BAD28F80BA8
:10016000AC284A30F700F70BB328B628800BAA2832
:1001700000348716C830CA00A42087120C138A11D5
:100180000A121F28450EF039F7000F3006057704D4
:10019000860000000614CC28061000348610F030CB
:1001A0008316860083120615000006140000060858
:1001B000060E0F39C50006100000061400000608E0
:1001C000060E0F39C4000610003083168600831215
:1001D000450EF700F030F70577084404F80078087A
:1001E000C400C41BCF28421C86104218861400008D
:1001F000061100000610430EC4000F30C405440869
:10020000C500C22043080F39C400C500C220003415
:100210000030831686008312861006110610A8018E
:100220008B1BA8178B130F30CA00A420A81B8B1799
:100230000130AF002F08033C031C2C290330C500FC
:10024000C220A8018B1BA8178B130530CA00A4205D
:10025000A81B8B17AF0A1A290230C500C220AF01B4
:100260002F08033C031C3D292F083520B000C20194
:100270003008C300CE20AF0A30298A110A12062D99
:100280003D080C3A03194B29063A03195929023A39
:1002900003196F297429C2010130C300CE20A801BF
:1002A0008B1BA8178B130230CA00A420A81B8B1726
:1002B0007A290130BE000230BF003F0B602963295C
:1002C0004030C0006429C00101303E02C007400830
:1002D0008038C100C2014108C300CE207A29C20182
:1002E0001030C300CE207A290130C2003D08C3007F
:1002F000CE207A2900348E30F7003008F8002F081D
:10030000F900FA01F808031D8F297908F800F901AE
:100310000830F702F808031D8F29F7019729031009
:10032000F81B9629F90DF80DF7038F29F8130034FF
:100330003D080319082AC50041080319082AC50702
:100340000318A9297F30C502031C082A0319082AAB
:10035000AD298130C5070318082A4508F700F801C0
:10036000F901FA013E08C900C9173F08C800400852
:10037000C7001830C500C601471CD6294408FA0733
:10038000031CC829F90A031DC829F80A0319C6174E
:100390004308F907031CCF29F80A0319C6174208B6
:1003A000BF00BF173F08F8070318C617C60DF80CA3
:1003B000F90CFA0CC90CC80CC70C0310C50BBB29EF
:1003C0000130F7070318082AF81BED29C90DFA0DAB
:1003D000F90DF80DF7030319082AC91FFE29FA0AB7
:1003E000031DFE29F90A031DFE29F80A031DFE2933
:1003F000F80CF90CFA0CF70A0319082A3E08C60093
:100400004208C606C61F062AF8170C2AF8130C2A3B
:10041000F701F801F901FA01003480308318B406BD
:10042000B901BA013008B8003408B8062F0803191A
:10043000FD2AB700F70033080319062BB70203198A
:10044000A22A031C602A3408BD00BD173508BC0071
:100450003608BB00BA010310BD0CBC0CBB0CBA0CB7
:10046000B70B2A2AB81F372A39141A2B391037101C
:1004700039163230840083132F2B3912B81B4A2AC5
:10048000371C552ABD0CBC0CBB0CBA0CF70A03195F
:10049000152B552ABD1B582A0310BA0DBB0DBC0DD8
:1004A000BD0DF7030319152B4A2A3917C22A391330
:1004B0003008B800B81F5E2ABD170E2BBD130E2BD7
:1004C0003308B700F7002F08B7023008BD00BD178A
:1004D0003108BC003208BB00BA010310BD0CBC0CD3
:1004E000BB0CBA0CB70B6C2AB81F792AB9141A2B9B
:1004F000B9103710B9163630840083132F2BB91278
:10050000B81B8C2A371C972ABD0CBC0CBB0CBA0C30
:10051000F70A0319152B972ABD1B9A2A0310BA0D47
:10052000BB0DBC0DBD0DF7030319152B8C2AB91794
:10053000C22AB9133408B800B81FA02ABD170E2B61
:10054000BD130E2B3408BD00BD173508BC0036089E
:10055000BB00B81FAF2ABD1339151A2B3911BA01C8
:1005600037103230840083132F2BB81BD82A300861
:10057000B800371CC22ABD0CBC0CBB0CBA0CF70A65
:100580000319152BBA1FD32ABB0A031DD32ABC0A91
:10059000031DD32ABD0A031DD32ABD0CBC0CBB0C02
:1005A000F70A0319152B391B572AB91B992AF72A61
:1005B0008030BD06BD1FE02A1A2B3408B800ED2A92
:1005C0003008B800BD08031DED2ABC08031DED2A44
:1005D000BB08031DED2AF7010E2BBD1BF72A0310E4
:1005E000BA0DBB0DBC0DBD0DF70BED2A152BB81FB9
:1005F000FB2ABD170E2BBD130E2B3308F700340852
:10060000BD003508BC003608BB000E2B2F08F700D4
:100610003008BD003108BC003208BB003D08F800BE
:100620003C08F9003B08FA004D2BF701F801F901ED
:10063000FA014D2BBA01BB09BC09BD09BA09BA0AB6
:10064000031D282BBB0A031D282BBC0A0319BD0A56
:100650003918362AB918782A3919AE2ADD2A00083D
:10066000BB07031C392BBC0A031D392BBD0A031918
:10067000371484030008BC07031C412BBD0A03196F
:10068000371484030008801F803ABD07031837140D
:10069000391A3D2AB91A7F2AB52A0034B80104084C
:1006A000B7003810831B3814310EF038B300B3078D
:1006B000E23EB400323EB60031080F39B407B40749
:1006C000B607E93EB500B507B507300E0F39B507D7
:1006D000B607B50DB60DB609B60D30080F39B60719
:1006E000B30D0730B2000A30B607B503031C742BF4
:1006F000B507B403031C782BB407B303031C7C2B8E
:10070000B307B203031C802B3230840083130730FD
:1007100037053713840736300402031937170008EA
:10072000F700031D9B2B371B9B2B371AAD2BB719DB
:100730009B2B20309E2BB71537123030F707B101B5
:100740000408B0003110831B31147708BD0040212C
:1007500030088400831331188317840A371F8B2BCA
:100760000034F701F801F901FA01C501C601C7011A
:10077000C80144084304420441040319EF2B20300C
:10078000C9000310BD0DBE0DBF0DC00DC50DC60DBA
:10079000C70DC80D44084802031DD82B4308470263
:1007A000031DD82B42084602031DD82B41084502E1
:1007B000031CE92B4108C5024208031C420FC60274
:1007C0004308031C430FC7024408031C440FC8021C
:1007D0000314F70DF80DF90DFA0DC90BC12B4530B7
:1007E0008400831300340408B5003408B7000319EB
:1007F000122C3308C0003208BF003108BE00300898
:10080000BD00C401C3012030C2008230C100982164
:100810007A08B3007908B2007808B1007708B00010
:10082000B70BF92B3308C0003208BF003108BE00F7
:100830003008BD003D08B63CBD00FA013E08C100CD
:10084000BE170310BE0CBF0CC00CFA0CF90CF80C50
:10085000F70CBD0B212CC11F382CF709F809F90939
:10086000FA09F70A0319F80A0319F90A0319FA0A27
:100870007A08B3007908B2007808B1007708B000B0
:10088000B31F4F2CB503B516B009B109B209B309AE
:10089000B00A0319B10A0319B20A0319B30A3B30AB
:1008A000BC009A30BB00CA30BA00B9010A30B700A8
:1008B00034080319B50A3308C0003208BF003108F4
:1008C000BE003008BD003C08C4003B08C3003A0825
:1008D000C2003908C100B1230008B000840A000832
:1008E000B100840A0008B200840A0008B300FD3099
:1008F0008407F708031D8F2C340A370203198F2C45
:1009000035080319912C0F3937020319892C031864
:10091000C12CB51BC12C351B912C2030BD2C203097
:10092000B505B51E9F2CB5123408031DB503770815
:10093000B5002D30BD0040213508F700B501340861
:100940003702031DAD2C7708B5002E30BD004021C5
:100950003508F7002030B50500303030B51EBD2C0D
:10096000B5123408031DB5037708B5002D30BD005E
:1009700040213508F700B5013030F7077708BD0092
:1009800040213C08C0003B08BF003A08BE003908BF
:10099000BD00C401C301C2010A30C100B1237A08FD
:1009A000BC007908BB007808BA007708B900B70B1B
:1009B0005B2C0034840183131F30830583161F14BE
:1009C0009F141F159F110912831290010030F80027
:1009D0009200003083169200831297019D018316C6
:1009E0008700091489140915831287011F139F17A3
:1009F00083169F1783121F1483161F109F101F1139
:100A00009F150C17C03083128B040829AF012F08E3
:100A10003D20AF0AF700BD00402111302F02031D19
:100A2000072D0630AF00A8018B1BA8178B13FA30D7
:100A3000CA00A420A81B8B17AF0B132D2830F80079
:100A40001F08C73978049F000630F700F70B262DE2
:100A500000001F151F192A2D83161E088312A900D6
:100A60001E08AA002A08B0002908AF007B21C00197
:100A7000BF01BE017630BD007A08C4007908C3000A
:100A80007808C2007708C10098218310B201B10133
:100A9000B0017F30AF007A08B6007908B500780859
:100AA000B4007708B3000D227A08AE007908AD00D3
:100AB0007808AC007708AB00AF012F085320AF0ACD
:100AC000F700BD0040210B302F02031D5D2D0630C5
:100AD000AF00A8018B1BA8178B13FA30CA00A42003
:100AE000A81B8B17AF0B692DAF012F086320AF0A2E
:100AF000F700BD00402109302F02031D752D103075
:100B000084002A08B1002908B0004E23AF012F0845
:100B10007420AF0AF700BD00402108302F02031DEA
:100B2000872D893084002E08B3002D08B2002C08D0
:100B3000B1002B08B0000230B400F3235630BD00E2
:100B400040210A30AF00A8018B1BA8178B13FA3085
:100B5000CA00A420A81B8B17AF0BA32D3030F800C0
:100B60001F08C73978049F000630F700F70BB62D31
:100B700000001F151F19BA2D83161E088312A90025
:100B80001E08AA002A08B0002908AF007B21C00176
:100B9000BF01BE017630BD007A08C4007908C300E9
:100BA0007808C2007708C10098218310B201B10112
:100BB000B0017F30AF007A08B6007908B500780838
:100BC000B4007708B3000D227A08AE007908AD00B2
:100BD0007808AC007708AB00AF012F088420AF0A7B
:100BE000F700BD0040210B302F02031DED2D063014
:100BF000AF00A8018B1BA8178B13FA30CA00A420E2
:100C0000A81B8B17AF0BF92DAF012F086320AF0A7C
:100C1000F700BD00402109302F02031D052E1030C2
:100C200084002A08B1002908B0004E23AF012F0824
:100C30007420AF0AF700BD00402108302F02031DC9
:100C4000172E893084002E08B3002D08B2002C081E
:100C5000B1002B08B0000230B400F3235630BD00C1
:100C600040210A30AF00A8018B1BA8178B13FA3064
:100C7000CA00A420A81B8B17AF0B332E3830F80006
:100C80001F08C73978049F000630F700F70B462E7F
:100C900000001F151F194A2E83161E088312A90073
:100CA0001E08AA002A08B0002908AF007B21C00155
:100CB000BF01BE017630BD007A08C4007908C300C8
:100CC0007808C2007708C10098218310B201B101F1
:100CD000B0017F30AF007A08B6007908B500780817
:100CE000B4007708B3000D227A08AE007908AD0091
:100CF0007808AC007708AB00AF012F089420AF0A4A
:100D0000F700BD0040210B302F02031D7D2E063061
:100D1000AF00A8018B1BA8178B13FA30CA00A420C0
:100D2000A81B8B17AF0B892EAF012F086320AF0ACA
:100D3000F700BD00402109302F02031D952E103011
:100D400084002A08B1002908B0004E23AF012F0803
:100D50007420AF0AF700BD00402108302F02031DA8
:100D6000A72E893084002E08B3002D08B2002C086D
:100D7000B1002B08B0000230B400F3235630BD00A0
:100D800040210A30AF00A8018B1BA8178B13FA3043
:100D9000CA00A420A81B8B17AF0BC32E1E2D630007
:02400E00393F38
:00000001FF
;PIC16F877
