:1000000000308A00222B0000FF00030E8301A100B4
:100010000A08A0008A010408A2007708A300780853
:10002000A4007908A5007A08A6007B08A70083131E
:1000300083128C308400801D1F288C1932282208DE
:1000400084002308F7002408F8002508F900260892
:10005000FA002708FB0020088A00210E8300FF0E0B
:100060007F0E09008A110A1237290A108A100A1114
:1000700082070A340D3420342034203420342034D4
:100080002034203420342034203432343434433487
:100090003034323443342034483461347234693477
:1000A00063346934203445344534503452344F3449
:1000B0004D342034423469346C346734693420342C
:1000C0004F346B3475346D346134203459346134B9
:1000D0007A346D3461342034203420342034203498
:1000E00020342034203420342034203400340A10CA
:1000F0008A100A1182070A340D34203442346934DC
:1001000072342034693473346C3465346D34203483
:1001100073346534633469346E3469347A343E340C
:1001200000340A108A100A1182070A340D344F3441
:100130006B3475346D346134203428344F342934B1
:100140002034763465347934613420345934613460
:100150007A346D34613420342834593429342034CD
:100160003E3400340A108A100A1182070A340D3412
:100170004F346B3475346D3461346B3420346934EE
:1001800073347434653464346934673469346E3478
:1001900069347A34203461346434723465347334AD
:1001A0006934203467346934723469346E346934A4
:1001B0007A343E34203400340A108A100A1182073F
:1001C0000A340D34443465346734653472343D3454
:1001D00020342534583400340A108A100A11F33EB2
:1001E00003188A0A82000A340D34423469346C34AC
:1001F000673469342034793461347A346D3461344D
:100200006B34203469347334743465346434693441
:10021000673469346E3469347A3420346134643438
:100220007234653473346934203467346934723419
:1002300069346E3469347A343E34203400340A141C
:100240008A100A1182070A340D34423469346C343E
:1002500067346934793469342034673469347234EA
:1002600069346E3469347A343E3420340034A81250
:1002700028088316870083128716FA30B1003130C0
:10028000840083130008031953290130F800F70193
:10029000F70B4829F80B47294A30F700F70B4E298E
:1002A0005129800B4529A81228088316870083123C
:1002B00087128C118A110A121F288C1E5D291A08B8
:1002C000AE002E080C1E622999002E08393C031C32
:1002D0006E2930302E02F8007E297E292E08603CDF
:1002E000031879292E087A3C031C79292E08DF3956
:1002F0007A292E08BF3E0A3EF8007E2900345D218F
:100300007808AD005D217808AC002C08DD3C031DA9
:100310008D292D08F800952995292D0EF700F0302C
:10032000F70577082C07F800952900340830F80005
:1003300000008711A8112808831687000000831287
:10034000AF0D0712031CAA29281628088316870058
:10035000AE29831228122808831687000000831212
:10036000A8152808831687008312871DB529F80B66
:10037000982900008711A81128088316870000001B
:1003800083122816280883168700000000008312B5
:10039000A8152808831687008312871DCD29F80128
:1003A0000000071A78148711A811280883168700FF
:1003B000831207122812280883168700831200343C
:1003C000281628088316870000008312A81528081D
:1003D000831687000000831207122812280883164C
:1003E0008700000083128711A81128088316870050
:1003F000A0308312AF00962178082E1078182E14A2
:10040000281228088316870000008312A8152808E0
:10041000831687008312871D0B2A00000F2A000015
:1004200028162808831687000000003083122E1C2F
:100430000130F8000034E021F80803191B2A2816BF
:1004400028088316870000008312A8152808831641
:1004500087000000831207122812280883168700DD
:10046000000083128711A811280883168700A03086
:100470008312AF0096212C08AF0096212816280879
:100480008316870000008312A815280883168700AA
:1004900000008312871D4A2A071228122808831693
:1004A0008700000083128711A8112808831687008F
:1004B000A1308312AF009621F7010830AF00770812
:1004C000B000281628088316870000008312A8159C
:1004D0002808831687008312871D6C2A071A0314C5
:1004E000071E0310F80D0000A811280883168700C6
:1004F00083128711AF0B612A2816280883168700FC
:10050000000083120712300803198B2A28122808CA
:100510008316870083120000A81528088316870019
:100520008312871D912A00008711A81128088316BD
:1005300087000000831207122812280883168700FC
:1005400078088312AD00281228088316870000005F
:100550008312A8152808831687008312871DAE2AE8
:100560000000B22A00002816280883168700000021
:1005700083122D08F8008A110A12DA2BAF1BD12A38
:100580000F30F7002E0EF7050A3077020318CB2A3A
:100590003030F707CD2A2F08F70777080C1ECE2A30
:1005A00099000F30AE050A302E020318D92A3030D8
:1005B000DB2AAF132F08AE072E080C1EDD2A990088
:1005C0008A110A12EE2BE021F8080319E32A2816F3
:1005D00028088316870000008312A81528088316B0
:1005E000870000008312071228122808831687004C
:1005F000000083128711A811280883168700A030F5
:100600008312AF0096212C08AF0096212D08AF0071
:100610009621281228088316870000008312A81547
:100620002808831687008312871D142B0000182BBF
:1006300000002816280883168700000083128A11FC
:100640000A12172C840183131F3083051930831677
:100650009900A630980090308312980083161F14DA
:100660009F141F159F11FF308312A80083160912D3
:10067000831290010030F80092000030831692003F
:100680001F149F141F159F1183121F10281528086F
:100690008316870083129701A81428088316870001
:1006A00083129D0183168C15C03083128B040A308F
:1006B0000C1E582B99000D300C1E5C2B99003B3002
:1006C000AC002A300C1E622B9900AC0B612BAC01E4
:1006D0002C083520AC0AF70077080C1E6D2B99000A
:1006E0003D302C02031D682B0A300C1E752B99001F
:1006F0000D300C1E792B99003B30AC002A300C1EBB
:100700007F2B9900AC0B7E2B0A300C1E852B990099
:100710000D300C1E892B9900AC012C087720AC0AF7
:10072000F70077080C1E922B990015302C02031D40
:100730008D2BAC012C089120AC0AF70077080C1E19
:100740009F2B99001C302C02031D9A2B8C1EA62B6C
:100750001A08AB002B08603C0318B52B2B087A3C19
:10076000031CB52B2B08DF39B62B2B08AB002B084D
:100770000C1EB82B99002B084F3C0319C32B2B08D8
:10078000593C031D992B2B084F3C031DEE2BAC014C
:100790002C08B220AC0AF70077080C1ECD2B99006C
:1007A00025302C02031DC82B7F217808AA002A08B7
:1007B000AC001B2A7808AC00AD012D08DC20AD0A86
:1007C000F70077080C1EE22B990009302D02031D5B
:1007D000DD2B2C08AE003730AF00BE2A2B08593C69
:1007E000031D172CAC012C08EC20AC0AF70077088D
:1007F0000C1EF82B99002B302C02031DF32B7F21AC
:100800007808AA00AC012C081F21AC0AF700770871
:100810000C1E082C990013302C02031D032C7F2181
:100820007808A9002A08AC002908AD00E32A992B12
:02083000630063
:02400E00393F38
:00000001FF
;PIC16F877
