:100000000C9462000C948A000C948A000C948A0070
:100010000C948A000C948A000C948A000C948A0038
:100020000C948A000C948A000C948A000C948A0028
:100030000C948A000C948A000C948A000C948A0018
:100040000C9442020C948A000C9413010C948A00C4
:100050000C948A000C948A000C948A000C948A00F8
:100060000C948A000C948A000000000024002700F1
:100070002A0000000000250028002B0000000000DE
:1000800023002600290004040404040404040202DA
:100090000202020203030303030301020408102007
:1000A0004080010204081020010204081020000012
:1000B0000007000201000003040600000000000029
:1000C0000000CC0111241FBECFEFD4E0DEBFCDBFB6
:1000D00011E0A0E0B1E0E6E4F8E002C005900D9286
:1000E000AC30B107D9F711E0ACE0B1E001C01D922E
:1000F000AF3AB107E1F710E0C4ECD0E004C02297BA
:10010000FE010E941D04C23CD107C9F70E940C01E8
:100110000C9421040C940000682F84E991E00E9463
:100120003A0208951F93162F8F70806C0E948C00E6
:10013000812F8F770E948C001F910895AF92BF92FC
:10014000CF92DF92EF92FF920F931F9380E00E9475
:10015000C4029C0180910E0190910F01A901481BDE
:10016000590BCA0106960D97C8F130930F012093E1
:100170000E0100D000D0B901882777FD8095982F17
:1001800024E630E040E050E0EDB7FEB72183328353
:100190004383548320E030E040E050E0FFEFEF2E57
:1001A000F3E0FF2E012D112DECE1AE2EB12CC12C70
:1001B000D12C0E944F030F900F900F900F906D3134
:1001C00071051CF46DE170E005C06436710514F032
:1001D00063E670E070930D0160930C011F910F9125
:1001E000FF90EF90DF90CF90BF90AF9008958DE09B
:1001F00061E00E94E2028DE061E00E94020384E976
:1002000091E042E15AE760E070E00E94500181E035
:100210006CE40E94920008950E948A020E94F700F6
:100220000E949E00FDCF1F920F920FB60F921124D5
:100230002F933F934F935F936F937F938F939F93EE
:10024000AF93BF93EF93FF934091C600E09190016D
:10025000F0919101CF01019660E870E00E94B70330
:100260009C0180919201909193012817390739F0F0
:10027000E05FFE4F40833093910120939001FF9106
:10028000EF91BF91AF919F918F917F916F915F910E
:100290004F913F912F910F900FBE0F901F90189587
:1002A000AF92BF92CF92DF92EF92FF920F931F9384
:1002B000CF93DF936C017A018B01DC011496AD9032
:1002C000BC901597CB01BA0122E030E040E050E04D
:1002D0000E94EC03205C3D4B404F5F4FCA01B901C7
:1002E000A80197010E94EC03C901DA010197A10955
:1002F000B109292F3A2F4B2F552747FD5A950196C3
:10030000A11DB11DE5012883E601EE81FF81815029
:100310008083EA85FB85208141E050E0CA010E849C
:1003200002C0880F991F0A94E2F7282B2083EA85E0
:10033000FB852081CA010F8402C0880F991F0A948F
:10034000E2F7282B2083EA85FB858081088802C09C
:10035000440F551F0A94E2F7842B8083DF91CF91DD
:100360001F910F91FF90EF90DF90CF90BF90AF90D3
:100370000895FC01A085B18521898C9190E0022E21
:1003800002C0959587950A94E2F780FFF6CF048422
:10039000F585E02D6083089585E091E090939501C7
:1003A0008093940180E191E090939701809396016E
:1003B00085EC90E0909399018093980184EC90E013
:1003C00090939B0180939A0180EC90E090939D0123
:1003D00080939C0181EC90E090939F0180939E011B
:1003E00086EC90E09093A1018093A00184E080933B
:1003F000A20183E08093A30187E08093A40185E0BC
:100400008093A50108950F931F93CF93DF938C01E1
:10041000EB0109C02196D801ED91FC910190F0818A
:10042000E02DC801099568816623A1F7DF91CF917E
:100430001F910F910895EF92FF920F931F93CF9307
:10044000DF938C017B01EA010CC0D7016D917D0126
:10045000D801ED91FC910190F081E02DC801099542
:100460002197209791F7DF91CF911F910F91FF90E6
:10047000EF900895DC01ED91FC910190F081E02D69
:10048000099508951F920F920FB60F9211242F9382
:100490003F938F939F93AF93BF938091AA019091C5
:1004A000AB01A091AC01B091AD013091AE010196CC
:1004B000A11DB11D232F2D5F2D3720F02D57019643
:1004C000A11DB11D2093AE018093AA019093AB01B1
:1004D000A093AC01B093AD018091A6019091A701CA
:1004E000A091A801B091A9010196A11DB11D809311
:1004F000A6019093A701A093A801B093A901BF9171
:10050000AF919F918F913F912F910F900FBE0F90C0
:100510001F901895789484B5826084BD84B58160FD
:1005200084BD85B5826085BD85B5816085BDEEE6FB
:10053000F0E0808181608083E1E8F0E0808182608A
:100540008083808181608083E0E8F0E08081816049
:100550008083E1EBF0E0808184608083E0EBF0E079
:10056000808181608083EAE7F0E08081846080831D
:1005700080818260808380818160808380818068C7
:1005800080831092C1000895877090910001929528
:10059000990F990F907C982B90937C0080917A0012
:1005A000806480937A0080917A0086FDFCCF209150
:1005B000780040917900942F80E030E0282B392B8F
:1005C000C9010895282F30E0C90186569F4FFC01CC
:1005D00094912A573F4FF9018491882391F0E82F95
:1005E000F0E0EE0FFF1FE859FF4FA591B49166238D
:1005F00029F48C91909589238C9308958C91892B63
:100600008C930895482F50E0CA0182559F4FFC01FA
:100610002491CA0186569F4FFC0194914A575F4F1F
:10062000FA0134913323D1F1222331F1233021F423
:10063000809180008F7705C0243031F48091800054
:100640008F7D8093800018C0213019F484B58F7796
:1006500004C0223021F484B58F7D84BD0DC02630C6
:1006600021F48091B0008F7705C0273029F4809164
:10067000B0008F7D8093B000E32FF0E0EE0FFF1FFE
:10068000EE58FF4FA591B491662329F48C91909573
:1006900089238C9308958C91892B8C9308952F92A4
:1006A0003F924F925F926F927F928F929F92AF9202
:1006B000BF92CF92DF92EF92FF920F931F93DF933F
:1006C000CF93CDB7DEB73B014C0119012A016D89EB
:1006D0007E898F89988D6A197B098C099D09621A18
:1006E000730A840A950AA40193010E949803E218F0
:1006F000F30804091509A80197010E94EC032A0DCB
:100700003B1D4C1D5D1DB901CA01CF91DF911F91A9
:100710000F91FF90EF90DF90CF90BF90AF909F90A0
:100720008F907F906F905F904F903F902F900895A3
:10073000629FD001739FF001829FE00DF11D649FC5
:10074000E00DF11D929FF00D839FF00D749FF00D51
:10075000659FF00D9927729FB00DE11DF91F639FF2
:10076000B00DE11DF91FBD01CF011124089597FBC4
:10077000092E07260AD077FD04D049D006D00020E4
:100780001AF4709561957F4F0895F6F790958195CD
:100790009F4F0895A1E21A2EAA1BBB1BFD010DC09D
:1007A000AA1FBB1FEE1FFF1FA217B307E407F50721
:1007B00020F0A21BB30BE40BF50B661F771F881FFD
:1007C000991F1A9469F760957095809590959B0193
:1007D000AC01BD01CF01089597FB092E05260ED06F
:1007E00057FD04D0D7DF0AD0001C38F4509540954F
:1007F000309521953F4F4F4F5F4F0895F6F79095F5
:100800008095709561957F4F8F4F9F4F0895AA1BDC
:10081000BB1B51E107C0AA1FBB1FA617B70710F0EB
:10082000A61BB70B881F991F5A95A9F7809590951D
:10083000BC01CD010895EE0FFF1F0590F491E02D4E
:060840000994F894FFCFBB
:0C0846000100000000B90103021B0200C9
:00000001FF
