:1000000000308A00252800000A108A100A11820791
:10001000013403340234063404340C340834093413
:100020002330840083130008031924280130F800CA
:10003000F701F70B1928F80B18284A30F700F70BCF
:100040001F282228800B16280034840183131F30B8
:10005000830583161F149F141F159F118312A0017F
:100060000A30A100FF30A20083160912831290010A
:100070000030F80092000030831692001F149F1485
:100080001F159F1183121F10221522088316870047
:1000900083129701A21422088316870083129D0100
:1000A0008316860183128601831605148312051CAC
:1000B000702820080420A3008316860183122308D9
:1000C0008600831605148312051861282108A300F1
:1000D00010202008073C031D6F28FF30A000A00A55
:1000E000831685148312851C8B28A008031D7A288B
:1000F0000830A000A00320080420A3008316860176
:10010000831223088600831685148312851883289A
:0A0110002108A3001020542863000A
:02400E00393F38
:00000001FF
;PIC16F877
