:1000000000308A003F2900000A108A100A11820776
:1000100028340C34013406340A108A100A1182077D
:100020000C34503472346F346734723461346D344C
:1000300020344B346F3464346C346134723469343A
:1000400000340A108A100A1182070C3441346434D7
:100050007234653473342034203420342034203416
:10006000203420344B346F34643400340A108A1046
:100070000A1182070A3425346C3478342034203451
:1000800020342034203420342034203425346C347F
:10009000783400340A108A100A1182070C34503464
:1000A00072346F346734723461346D3420344234C6
:1000B00069347434743469342E342E342E3400345C
:1000C0002930840083130008031974280130F800D4
:1000D000F701F70B6928F80B68284A30F700F70B8F
:1000E0006F287228800B66280034300EF039F70034
:1000F0000F30060577048600000006147F280610DE
:1001000000348610F0308316860083120615000036
:10011000061400000608060E0F39B0000610000095
:10012000061400000608060E0F39AF000610003056
:10013000831686008312300EF700F030F70577083B
:100140002F04F8007808AF00AF1B82282D1C861002
:100150002D18861400000611000006102E0EAF00A8
:100160000F30AF052F08B00075202E080F39AF00F3
:10017000B00075200034003083168600831286108C
:10018000061106100F30A90060200130A5002508D7
:10019000033C031CD3280330B00075200530A900B0
:1001A0006020A50AC7280230B0007520A5012508E7
:1001B000033C031CE42825080420A600AD01260802
:1001C000AE008120A50AD7288A110A1270292A0BAD
:1001D000EA28ED284030AB00EE28AB0101302902BF
:1001E000AB072B088038AC00AD012C08AE00812095
:1001F000003428080C3A03190429063A03190C297B
:10020000023A031912291729AD010130AE008120ED
:100210000230A90060201D290130A9000230AA0087
:10022000E7201D29AD011030AE0081201D290130CD
:10023000AD002808AE0081201D290034A71B3029FD
:100240000F30F700260EF7050A30770203182B2926
:100250003030F7072D292708F7077708A800F9207D
:100260000F30A6050A3026020318382930303A2903
:10027000A7132708A6072608A800F9200034840140
:1002800083131F30830583161F149F141F159F119E
:100290008312A001A101A201A301FF30A4008316D3
:1002A0000912831290010030F8009200003083168A
:1002B00092001F149F141F159F1183121F102415E5
:1002C00024088316870083129701A4142408831638
:1002D000870083129D010130831685008312BB289D
:1002E000A50125080C20A50AF700A800F920103068
:1002F0002502031D71290430A500FA30A9006020F1
:10030000A50B7D29A50125082120A50AF700A80035
:10031000F92010302502031D8329200F932921087D
:100320003F3C0319002A200803178D0003132108FE
:1003300003178F0083168C170C1400000000831223
:100340000E08FA000C080313A2007A08A30001307B
:10035000A9000230AA00E7200A30A800F9202108ED
:10036000A6005730A7001E212008A6005730A7007E
:100370001E210430A50025083620A50AF700A80094
:10038000F9200C302502031DBB292308A600573095
:10039000A7001E212208A6005730A7001E21023008
:1003A000A500FA30A9006020A50BD129A00A0319E5
:1003B000A10A051CFF291430A90060202108FA00B9
:1003C000200803178D007A088F008C018E01831698
:1003D0008C170C15831203130B08F8008B1383166C
:1003E000031755308D00AA308D008C1400000000DA
:1003F0008C18F8290C117808831203138B048D29AB
:10040000A50125084A20A50AF700A800F920113007
:080410002502031D012A63000F
:02400E00393F38
:00000001FF
;PIC16F877
