:1000000000308A00E62800000A108A100A118207D0
:100010004B3465346E346434693420344C344334A6
:1000200044342034203444346F34733479346134AC
:1000300000340A108A100A118207443465346E3481
:1000400065346D3465346D3469347A340034253068
:1000500084008313000803193B280130F800F701DE
:10006000F70B3028F80B2F284A30F700F70B36280B
:100070003928800B2D280034240EA5000F30A5054B
:1000800083168601831225088600831606128312C2
:10009000061200008316861283128616000083164D
:1000A0008612831286120230A500272024080F39F9
:1000B000A500831686018312250886008316061282
:1000C0008312061200008316861283128616000021
:1000D00083168612831286120230A5002720003470
:1000E000A10183160612831206128316861283124A
:1000F00086121E30A5002720A1012108033C031C05
:1001000089280330A4003C200530A5002720A10A3F
:100110007D280230A4003C202830A4003C20083078
:10012000A4003C200C30A4003C200630A4003C205D
:100130000130A4003C208A110A120F29210BA628A5
:10014000013022028038A300A4003C202108023C98
:10015000031DB12801302202403E8038A300A400D4
:100160003C200034220EA3000F30A3058316860125
:1001700083122308860083160612831206160000D7
:100180008316861283128616000083168612831247
:1001900086120230A500272022080F39A3008316FB
:1001A0008601831223088600831606128312061620
:1001B00000008316861283128616000083168612AC
:1001C000831286120230A500272000348401831395
:1001D0001F30830583161F149F141F159F11FF30B6
:1001E0008312A00083160912831290010030F800D8
:1001F00092000030831692001F149F141F159F1148
:1002000083121F1020152008831687008312970180
:10021000A01420088316870083129D0170280130E6
:10022000A100A2009E20A10121080420A10AF7003C
:10023000A200B22010302102031D14290430A100B5
:10024000FA30A5002720A10B20290230A10004309C
:10025000A2009E20A10121081920A10AF700A200F6
:10026000B22009302102031D2B290430A100FA30ED
:10027000A5002720A10B37290130A4003C200E3017
:10028000A4003C200130A1000630A2009E20433093
:10029000A200B2200430A100FA30A5002720A10B53
:1002A0004C294330A200B2200430A100FA30A5004E
:1002B0002720A10B56295330A200B2200430A10000
:1002C000FA30A5002720A10B60292030A200B2201F
:1002D0004330A200B2200430A100FA30A50027204C
:0E02E000A10B6D290130A4003C200F29630002
:02400E00393F38
:00000001FF
;PIC16F877
;CRC=FEAF  CREATED="10-Mar-09 02:52"
