:02000000AC2929
:10000800FF00030E83018316B3000A08B4008A01B7
:1000180083128C1C13280130A00012118C10831637
:0E00280034088A00330E8300FF0E7F0E09009D
:10003600103083120313FD00FD0B1F28000008007B
:0400460000000800AE
:10004A00083083120313FC002330FD00FD0B2B281C
:06005A00FC0B2B2808003E
:1000600083160313BA1B3728831286133928831289
:10007000861783163A1B3F288312061341288312E2
:1000800006178316BA1A4728831286124928831244
:10009000861683163A1A4F288312061251288312A5
:1000A00006166C18552806155628061186152320A5
:1000B00086118316BA195F2883128613612883126A
:1000C000861783163A196728831206136928831244
:1000D00006178316BA186F288312861271288312A6
:1000E000861683163A187728831206127928831207
:1000F00006166C187D2806157E2806118615232005
:0E01000086116C1C8528252086281B200800EF
:0E010E00831203136B088A006A08820008003F
:10011C00831203136C1083163908BA0030206C1448
:02012C000800C9
:10012E0083120313A001910112150518A2282008AD
:10013E00031DA2289C2820080319A728F001B62821
:10014E009101051CAE282008031DAE28A828200802
:10015E000319B328F001B62812110130F00008007F
:10016E00C928803083160313B500DC28C030B500D3
:10017E00DC289430B500DC28D430B500DC28803083
:10018E00B500DC28831603133508013A0319B82885
:10019E003508023A0319BD283508033A0319C02859
:1001AE003508043A0319C328C6283603F00035086B
:1001BE00F0077008B5007008BA0030206C10831676
:1001CE00B80138083707840000080319F7283808E3
:1001DE00370784000008B9008E208316B80AE82875
:0601EE0083126C140800EE
:1001F40083160313B50105148312ED0108306D0253
:100204000318252905180729042991011215051C2D
:100214000C29092912111108283C031822296D08F8
:10022400073CF0007008F1000130F0007108031978
:100234001F29F00D7010FF3E192970088316B504AC
:0E0244008312ED0A002983163508F000080029
:1002520087208A110A128000840AEA0A0319EB0A2B
:08026200F003031D2929080027
:10026A0083120313F8010830FC00700DF80D7408AE
:10027A00F80203184229F8070310F00DFC0B3A297B
:02028A0008006A
:10028C00831603130510831205102130FC00763001
:10029C00FD00FD0B4F29FC0B4F2900000514093004
:1002AC00FD00FD0B57290000000083160514080003
:1002BC008316031386110611061286120613861373
:1002CC008312861106118613061386120612252038
:1002DC002520252086160616861523208611252016
:1002EC00861523208611252086152320861125208E
:1002FC0006128615232086112520861523208611AB
:10030C00861286178615232086112520861306163D
:10031C00861523208611061286152320861125208A
:10032C008615232086110616861523208611252076
:10033C0006128615232086118617061786160616B2
:0C034C0086152320861125206C14080063
:10035800E422831603138601831286012130831653
:100368008500073083129F008B170B1783168C1498
:10037800831292018C1091015E2101308316BA001C
:1003880030200C308316BA0030200630FB001330C2
:10039800FC00AD30FD00FD0BCF29FC0BCF29FB0B7A
:1003A800CF2900000000462197207008031DF1297D
:1003B80001308316BA00302001308316B5000130B1
:1003C800B6002130B700B72002308316B5000130DF
:1003D800B600A030B700B720822AFA20700883122E
:1003E800EF00FA2070088312EE00FA207008B200BD
:1003F800FA207008B100FA207008B00083126E0865
:100408006F07F100F2010318F20A83163208F107A8
:100418000318F20A3108F1070318F20AFF307105D0
:10042800F3007208F4000030F40500307406031D70
:100438001F2A73087006031D6E2A0A30F40032085A
:10044800F000352130307007D2000A30F4008316EE
:100458003208F00035217808F00030307007D300FA
:100468000A30F40083163108F00035213030700767
:10047800D5000A30F4006F08F000352130307007DD
:10048800C4000A30F4006F08F00035217808F00045
:1004980030307007C5000A30F4006E08F0003521CE
:1004A80030307007C700DF30D60001308316BA003D
:1004B800302001308316B5000130B6004B30B7004C
:1004C800B72002308316B5000130B6003D30B700C2
:1004D800B720822A01308316BA00302001308316F3
:1004E800B5000130B6002D30B700B72002308316B2
:1004F800B5000130B6005930B700B720C929832AA2
:1005C800203084004A3083120313F0008930EA0097
:1005D8000230EB002921A030840010308312F00093
:0C05E800D330EA000230EB0029210800AB
:020512000034B3
:100514004E346F34203472346534733470346F3431
:080524006E34733465340034B9
:10052C0043346834653463346B34733475346D34EC
:10053C0020344534723472346F34723421340034C4
:10054C00523448342034203420343D342034303478
:0C055C0030342E34303420342534003488
:10056800543465346D34703420343D3420343034A0
:0C05780030342E3430342034433400344E
:1005840054347234793469346E34673420344134E9
:100594006734613469346E3420342E342E342E346E
:0205A400003421
:1005A600663472346F346D34203474346834653490
:1005B6002034733465346E3473346F3472340034DB
:02400E00692126
:00000001FF
