:1000000001308A00D02900000A108A100A118207E4
:1000100028340C34013406340C10C432EE32ED3284
:10002000B1190000583084008313000803192528F3
:100030000630F800F701F70B1B28F80B1A287B3065
:10004000F700F70B2128800B182808005F182A28D2
:1000500008102B280814831608108312DF18322882
:100060008810332888148316881083125F193A2861
:1000700008113B280815831608118312DF1942283E
:100080008811432888158316881100008510831273
:1000900085140330F700F70B4B2883168510831265
:1000A00085100800E0018316851083128514000076
:1000B00083160814831260100818601483168814BD
:1000C0008312E0108818E01483160815831260115B
:1000D00008196015831688158312E0118819E01538
:1000E00083168510831285106008F80008008316B7
:1000F00085118312851183160511831205150000E1
:1001000052207808DF0052207808DE005F0EF700EA
:10011000F030F70577085E04F8007808DE00DE1B93
:100120007B28DC080319992883168511831285150D
:100130009D288316851183128511000083160511F1
:1001400083120511000083168510831285105D0E41
:10015000DE000F30DE055E08DF0026205D080F3967
:10016000DE00DF002620080083168511831285112A
:1001700083160511831205118316851083128510CD
:100180000F30D8001220D4015408023C031CD028A0
:100190000330DF0026200530D8001220D40AC428FE
:1001A0000230DF002620D4015408033C031CE12860
:1001B00054080420D500DC015508DD007720D40A5E
:1001C000D4288A110A121F2A57080C3A0319EF285B
:1001D000063A0319F728023A03190D291229DC01FE
:1001E0000130DD0077200230D800122018290130BC
:1001F000D8000230D900590BFE2801294030DA001E
:100200000229DA0101305802DA075A088038DB0087
:10021000DC015B08DD0077201829DC011030DD00EF
:10022000772018290130DC005708DD0077201829D5
:100230000800831603178C170C14000000008312AB
:100240000C087F3903195D290313D40003170D0827
:100250000313D50003170F080313D6005408D70063
:10026000E420550803178D000313560803178F0069
:1002700083168C170C140000000083120C0D0E0D59
:100280007F3903195D290313D40003170D080313E5
:10029000D50003170F080313D6005408D700E42035
:1002A000550803178D000313560803178F008D0A96
:1002B00003198F0A03131929031703138A110A124A
:1002C000262AF801F901F701FA015708031D6B29E5
:1002D0005608031985291030D8000310D40DD50D08
:1002E000F70DFA0D57087A02031D78295608770290
:1002F000031C81295608F702031CFA035708FA0267
:100300000314F80DF90DD80B6D2908005708F801F2
:10031000560203188E295608F7009A29F70108306B
:10032000D800D60DF70D570877020318F700F80D1F
:10033000D80B9129080078085408D6006430D700FB
:1003400086217708D40078083030031DAE29D51CEB
:10035000B529D519B529551A2030B129D51155120D
:100360005514F8077808D700E4205408D6000A305E
:10037000D70086217708D40078083030031DC629BD
:10038000D519CA29551CCA29551A2030F8077808EA
:10039000D700E4203030D4075408D700E420080008
:1003A000840183131F30830583161F149F141F15A8
:1003B0009F1107309C00FF308312A00083161F148A
:1003C0009F141F159F111F1383121F139F13831652
:1003D0009F1383121F148316091283129412A01202
:1003E00020088316870083122016200883168700B2
:1003F0008312A01120088316870001308312940015
:100400000030831694000108C73908388100831230
:1004100090010030F80092000030831692000730FF
:100420009C00050885001030F700F70B152A000026
:100430001C0883120D1383169D018312B4280C30FF
:1004400003178D0000308F00031319290430D400E6
:10045000FA30D8001220D40B282AA101A201A3014E
:100460000030831686008601013083128600CE019B
:10047000CD01D101D001D3010030831686000610D2
:10048000831206100830D80012208316061083123B
:1004900006143130F700F70B4B2A4E2A831606104C
:1004A0008312061001308316860006148312061C80
:1004B0005B2A8316552A2308283C031C772A8316B7
:1004C00006148312061C5F2AA201831606148312E7
:1004D000061C6F2A6B2A6C2A0000A20A652A2430A7
:1004E00023078400831322088000A30A5B2A0130BB
:1004F000D3005308103C031CCB2A2430530784003C
:1005000083130008063C0318A62A243053078400EE
:10051000831300080D3C031CA62A01305302D400AB
:10052000FA010130F9005408F70003199C2A03105E
:10053000F90DFA0DF70B972A7908FF3AF700FF300B
:10054000FA067708CD057A08CE05C92A2430530764
:10055000840083130008183C0318C92A2430530769
:100560008400831300081D3C031CC92A0130530278
:10057000D400FA010130F9005408F7000319C52A24
:100580000310F90DFA0DF70BC02A7908CD047A088B
:10059000CE04D30A792A5308203C031C1D2B243097
:1005A0005307840083130008063C0318F82A2430FC
:1005B00053078400831300080D3C031CF82A1130F4
:1005C0005302D400FA010130F9005408F70003196E
:1005D000EE2A0310F90DFA0DF70BE92A7908FF3A14
:1005E000F700FF30FA067708D0057A08D1051B2BF3
:1005F00024305307840083130008183C03181B2B76
:10060000243053078400831300081D3C031C1B2B5C
:1006100011305302D400FA010130F9005408F700F8
:100620000319172B0310F90DFA0DF70B122B79088C
:10063000D0047A08D104D30ACB2A4E08D5004D083D
:10064000D400D7010A30D60061217808CF005108C4
:10065000D5005008D400D7010A30D60061217808AF
:10066000D2000C30D700E4205208D4001B30D50053
:100670009B212030D700E4203A30D700E4202030FE
:10068000D700E4204F08D4001B30D5009B21003058
:100690008316860086010130831286001430D40050
:0E06A000FA30D8001220D40B502B3C2A6300F5
:02400E003A3F37
:00000001FF
;PIC16F877A
;CRC=0C75  CREATED="02-Oca-14 17:18"
