:1000000001308A00AB2900000A108A100A11820709
:1000100028340C34013406340C10C432EE32ED3284
:10002000311900005130840083130008031925287A
:100030000630F800F701F70B1B28F80B1A287B3065
:10004000F700F70B2128800B1828080058182A28D9
:1000500008102B280814831608108312D818322889
:1000600088103328881483168810831258193A2868
:1000700008113B280815831608118312D819422845
:100080008811432888158316881100008510831273
:1000900085140330F700F70B4B2883168510831265
:1000A00085100800D901831685108312851400007D
:1000B00083160814831259100818591483168814CB
:1000C0008312D9108818D914831608158312591170
:1000D00008195915831688158312D9118819D9154D
:1000E00083168510831285105908F80008008316BE
:1000F00085118312851183160511831205150000E1
:1001000052207808D80052207808D700580EF700FF
:10011000F030F70577085704F8007808D700D71BA8
:100120007B28D50803199928831685118312851514
:100130009D288316851183128511000083160511F1
:100140008312051100008316851083128510560E48
:10015000D7000F30D7055708D800262056080F398A
:10016000D700D80026200800831685118312851138
:1001700083160511831205118316851083128510CD
:100180000F30D1001220CD014D08023C031CD028B5
:100190000330D80026200530D1001220CD0AC42813
:1001A0000230D8002620CD014D08033C031CE12875
:1001B0004D080420CE00D5014E08D6007720CD0A88
:1001C000D4288A110A12FA2950080C3A0319EF2888
:1001D000063A0319F728023A03190D291229D50105
:1001E0000130D60077200230D100122018290130CA
:1001F000D1000230D200520BFE2801294030D3003A
:100200000229D30101305102D30753088038D400AA
:10021000D5015408D60077201829D5011030D60012
:10022000772018290130D5005008D60077201829EA
:100230000800831603178C170C14000000008312AB
:100240000C087F3903195D290313CD0003170D082E
:100250000313CE0003170F080313CF004D08D0007F
:10026000E4204E0803178D0003134F0803178F0077
:1002700083168C170C140000000083120C0D0E0D59
:100280007F3903195D290313CD0003170D080313EC
:10029000CE0003170F080313CF004D08D000E42051
:1002A0004E0803178D0003134F0803178F008D0AA4
:1002B00003198F0A03131929031703138A110A124A
:1002C000012A5008F8014F02031869294F08F70066
:1002D0007529F7010830D100CF0DF70D50087702CE
:1002E0000318F700F80DD10B6C29080078084D08A9
:1002F000CF006430D00061217708CD00780830301D
:10030000031D8929CE1C9029CE1990294E1A203020
:100310008C29CE114E124E14F8077808D000E42034
:100320004D08CF000A30D00061217708CD00780851
:100330003030031DA129CE19A5294E1CA5294E1A1E
:100340002030F8077808D000E4203030CD074D0881
:10035000D000E4200800840183131F308305831636
:100360001F149F141F159F1107309C00FF3083122C
:10037000A00083161F149F141F159F111F138312B3
:100380001F139F1383169F1383121F1483160912C2
:1003900083129412A012200883168700831220165D
:1003A0002008831687008312A01120088316870077
:1003B0000130831294000030831694000108C7397D
:1003C00008388100831290010030F800920000305C
:1003D0008316920007309C00050885001030F70056
:1003E000F70BF02900001C0883120D1383169D01E2
:1003F0008312B4280C3003178D0000308F000313D4
:1004000019290430CD00FA30D1001220CD0B032A77
:10041000A101A201A30100308316860086010130EC
:1004200083128600003083168600061083120610A1
:100430000830D100122083160610831206143130C2
:10044000F700F70B212A242A8316061083120610C0
:1004500001308316860006148312061C312A831687
:100460002B2A2308283C031C4D2A831606148312CA
:10047000061C352AA201831606148312061C452A7F
:10048000412A422A0000A20A3B2A24302307840082
:10049000831322088000A30A312A0C30D000E42004
:1004A0002408CD001B30CE0076213A30D000E42065
:1004B0004808CD001B30CE0076213A30D000E42031
:1004C0004908CD001B30CE0076213A30D000E42020
:1004D0004A08CD001B30CE0076213A30D000E4200F
:1004E0004C08CD001B30CE007621003083168600EC
:1004F00086010130831286001430CD00FA30D1001D
:0A0500001220CD0B7E2A122A6300A0
:02400E003A3F37
:00000001FF
;PIC16F877A
;CRC=0354  CREATED="02-Oca-14 17:02"
