:1000000001308A00AA2900000A108A100A1182070A
:1000100028340C34013406340C10C432EE32ED3284
:100020003700503084008313000803192428063059
:10003000F800F701F70B1A28F80B19287B30F700A6
:10004000F70B2028800B17280800571829280810BC
:100050002A280814831608108312D718312888100C
:1000600032288814831688108312571939280811EA
:100070003A280815831608118312D71941288811C8
:100080004228881583168811000085108312851474
:100090000330F700F70B4A2883168510831285106A
:1000A0000800D8018316851083128514000083167A
:1000B00008148312581008185814831688148312D1
:1000C000D8108818D81483160815831258110819E7
:1000D0005815831688158312D8118819D8158316D8
:1000E0008510831285105808F800080083168511C2
:1000F0008312851183160511831205150000512006
:100100007808D70051207808D600570EF700F03055
:10011000F70577085604F8007808D600D61B7A2829
:10012000D4080319982883168511831285159C28F5
:100130008316851183128511000083160511831221
:10014000051100008316851083128510550ED60008
:100150000F30D6055608D700252055080F39D60090
:10016000D700252008008316851183128511831678
:1001700005118312051183168510831285100F3027
:10018000D0001120CC014C08023C031CCF280330C6
:10019000D70025200530D0001120CC0AC32802301A
:1001A000D7002520CC014C08033C031CE0284C0858
:1001B0000420CD00D4014D08D5007620CC0AD328E8
:1001C0008A110A12F9294F080C3A0319EE28063A47
:1001D0000319F628023A03190C291129D401013018
:1001E000D50076200230D000112017290130D00030
:1001F0000230D100510BFD2800294030D2000129E6
:10020000D20101305002D20752088038D300D40105
:100210005308D50076201729D4011030D500762058
:1002200017290130D4004F08D5007620172908007F
:10023000831603178C170C140000000083120C089F
:100240007F3903195C290313CC0003170D0803132E
:10025000CD0003170F080313CE004C08CF00E32096
:100260004D0803178D0003134E0803178F008316E4
:100270008C170C140000000083120C0D0E0D7F393A
:1002800003195C290313CC0003170D080313CD00D9
:1002900003170F080313CE004C08CF00E3204D08CE
:1002A00003178D0003134E0803178F008D0A0319DF
:1002B0008F0A03131829031703138A110A12002A3D
:1002C0004F08F8014E02031868294E08F7007429F8
:1002D000F7010830D000CE0DF70D4F087702031854
:1002E000F700F80DD00B6B29080078084C08CE00F9
:1002F0006430CF0060217708CC0078083030031DCF
:100300008829CD1C8F29CD198F294D1A20308B2992
:10031000CD114D124D14F8077808CF00E3204C089A
:10032000CE000A30CF0060217708CC00780830304A
:10033000031DA029CD19A4294D1CA4294D1A203034
:10034000F8077808CF00E3203030CC074C08CF0006
:10035000E3200800840183131F30830583161F14D4
:100360009F141F159F1107309C00FF308312A000BF
:1003700083161F149F141F159F111F1383121F1321
:100380009F1383169F1383121F148316091283125F
:100390009412A012200883168700831220162008CA
:1003A000831687008312A01120088316870001306E
:1003B000831294000030831694000108C73908386E
:1003C0008100831290010030F80092000030831603
:1003D000920007309C00050885001030F700F70BED
:1003E000EF2900001C0883120D1383169D01831250
:1003F000B3280C3003178D0000308F000313182929
:100400000430CC00FA30D0001120CC0B022AA1011C
:10041000A201A301003083168600860101308312F9
:1004200086000030831686000610831206100830FE
:10043000D000112083160610831206143130F70005
:10044000F70B202A232A8316061083120610013088
:100450008316860006148312061C302A83162A2A65
:100460002308273C031C4C2A831606148312061CFF
:10047000342AA201831606148312061C442A402A39
:10048000412A0000A20A3A2A243023078400831359
:1004900022088000A30A302A0C30CF00E32047084E
:1004A000CC001B30CD0075213A30CF00E320480846
:1004B000CC001B30CD0075213A30CF00E320490835
:1004C000CC001B30CD0075213A30CF00E3204A0824
:1004D000CC001B30CD0075213A30CF00E3204B0813
:1004E000CC001B30CD0075210030831686008601BC
:1004F0000130831286001430CC00FA30D000112075
:08050000CC0B7D2A112A6300D7
:02400E003A3F37
:00000001FF
;PIC16F877A
;CRC=AD9A  CREATED="02-Oca-14 16:38"
