:1000000000308A0004280000840183131F30830518
:1000100083161F149F141F159F11FF308312A00019
:10002000831609128312900183161F149F141F1543
:100030009F1183121F10201520088316870083123A
:100040009701A01420088316870083129D010130B8
:100050008316850000308600831286010F30F7007A
:10006000073081018130840083130008F03907389C
:10007000800064000008F739F719F0397704800030
:1000800001308606051C462864004228630040288B
:0200900063000B
:02400E003D3F34
:00000001FF
;PIC16F877
