:1000000000308A00A7280000FF00030E8301A10032
:100010000A08A0008A010408A2007708A300780853
:10002000A4007908A5007A08A6007B08A70083131E
:1000300083128B1E1D280B193028220884002308E8
:10004000F7002408F8002508F9002608FA00270818
:10005000FB0020088A00210E8300FF0E7F0E09009E
:100060008A110A1260280A108A100A1182070834BD
:1000700009340A340B340C340D340E340F3410347C
:10008000113412340A108A100A1182071234113402
:1000900010340F340E340D340C340B340A3409345C
:1000A00008340A108A100A11820708340C341234FA
:1000B00008340C34123408340C34123408340C3440
:1000C00071308100A908031D712883160610831260
:1000D0000614831686108312861483160611831263
:1000E00006152A082902031C792883160610831294
:1000F00006102B082902031C812883168610831200
:1001000086102C082902031C8928831606118312E5
:100110000611AD0A0319AE0A2E08423C03189E28A8
:10012000FF3A031D97282D08C63C03189E28AE01F0
:10013000AD01A80A28080B3C0319A801A90A29083F
:10014000AC3C031CA9010B118A110A121D28840161
:1001500083131F30830583161F149F141F159F11CF
:100160008312A801A901AA01AB01AC01AD01AE0146
:10017000FF30AF0083160912831290010030F8009F
:1001800092000030831692001F149F141F159F11B8
:1001900083121F102F152F088316870083129701D3
:1001A000AF142F088316870083129D018316010860
:1001B000C039013881007130831281008B16C03044
:1001C0008B04831686018312860128083320F800E9
:1001D000AA0028084220F800AB0028085120F800A7
:0601E000AC00E5286300FD
:02400E003A3F37
:00000001FF
;PIC16F877
;CRC=D4E9  CREATED="12-Mar-09 04:14"
