:1000000000308A003C2800000A108A100A1182077A
:100010003F3406345B344F3466346D347C340734FB
:100020007F346F342508F801240203181A282408A5
:10003000F7002628F7010830A600A40DF70D2508C3
:1000400077020318F700F80DA60B1D2800342430A2
:1000500084008313000803193B280130F800F701DE
:10006000F70B3028F80B2F284A30F700F70B36280B
:100070003928800B2D280034840183131F30830519
:1000800083161F149F141F159F118312A001A10135
:10009000A201FF30A3008316091283129412A31247
:1000A00023088316870083122316230883168700EC
:1000B0008312A31123088316870001308312940052
:1000C00000308316940083129001F80092000030F3
:1000D000831692001F149F141F159F1183121F1067
:1000E000231523088316870083129701A31423087E
:1000F0008316870083129D01FC3083168500003033
:1001000086008312051085102208A4000A30A5007D
:1001100012207708A0002208A4000A30A5001220AF
:100120007808A100851420080420A400860005306A
:10013000A40027208510051421080420A4008600AF
:100140000530A40027200510051DD1280A30A40081
:100150002720A20A2208643C0319A2012208A40055
:100160000A30A50012207708A0002208A4000A3057
:10017000A50012207808A100051DD12885142008AB
:100180000420A40086000530A40027208510051453
:1001900021080420A40086000530A40027200510B3
:0601A000BC288428630066
:02400E00393F38
:00000001FF
;PIC16F877
