:10000000B2EF04F0F76A140FF66E000EF722090043
:10001000F5501200280C01065349432025312E3398
:10002000662000004E454D2025312E33662000000D
:10003000EA6A220EE96EEF500EE0010E016E006AD0
:10004000002EFED7012EFBD74A0E006E002EFED7E3
:1000500000D0EF2EF2D7000C29B002D08C9801D03E
:100060008C88959829B202D08C9A01D08C8A959A66
:1000700029B402D08C9C01D08C8C959C29B602D0DE
:100080008C9E01D08C8E959E000095908C8000D027
:1000900095908C90000C95928C92130E006E002E11
:1000A000FED700D0265203E095928C8202D0959222
:1000B0008C92000095908C902738286E0F0E281691
:1000C00028C029F0C9DF27500F0B286E296EC4DF26
:1000D000000C95928C9295908C900F0E226EA8DF5A
:1000E000146A1450020808E3030E296EB5DF050EEA
:1000F000226E9EDF142AF5D7020E296EADDF146A38
:10010000145003080CE3036A14507CDF156E266A52
:10011000276EC1DF050E226E8BDF142AF1D7E8EFC0
:1001200004F0938E939C8A9C0000939C8A8C000020
:10013000939E8A9E0000939C8A9C00D0939C8A8CFC
:100140000000938E0000939C8A9C000C938E939CDD
:100150008A9C00D0146A1450080808E3939C8A8C87
:1001600000D0939C8A9C00D0142AF5D7DADFBAEF2E
:1001700000F0ECD7140E226E5BDFEEEF04F0800E81
:10018000296E00D000D0286A2850070811E3939CFC
:100190008A9C2750291402E0938E02D0939E8A9E57
:1001A0000000939C8A8C0000D8902932282AECD732
:1001B000939C8A9C0000938E2A9081BE2A80939CF7
:1001C0008A8C0000939C8A9C000E2AB0010E016E5E
:1001D000000C938E939C8A9C0000286A276A285002
:1001E000750810E303E127502F080CE3938E81BEBE
:1001F00001D008D0030E006E002EFED7272AD8B4F7
:10020000282AEDD7000C296A286A276A2750070890
:1002100010E3D89028362936939C8A8C0000938E60
:1002200081AE02D0288000D0939C8A9C0000272AAF
:10023000EDD7939E8A9E0000939C8A8C00D0939C5D
:100240008A9C0000938E276A2750070810E3D890F5
:1002500028362936939C8A8C0000938E81AE02D07A
:10026000288000D0939C8A9C0000272AEDD7938E8B
:100270000000939C8A8C00D0939C8A9C28C001F03B
:1002800029C002F0000C4DDF030E276E78DF2490AA
:1002900001B0248024A001D00AD09BDFB4DF02C0CB
:1002A00026F001C025F025C001F026C002F0F9EFCC
:1002B00004F037DF050E276E62DF249001B0248042
:1002C00024A001D00AD085DF9EDF02C026F001C045
:1002D00025F025C001F026C002F0FEEF04F08E0EDE
:1002E000006E3DC001F03CC002F0036A015209E11A
:1002F00002C001F0026A080E005E015202E1006ACB
:1003000008D0D89001BE04D0023601360006F9D7D5
:10031000019E000C4450D8B471D0006E4850D8B43F
:100320006DD0002604E3810E002668E204D07F0E23
:10033000005E64E363E045C04CF049504C1A458EC2
:10034000498E47504B02F4CF4EF046504A02F4CF4C
:1003500003F0F3CF4DF04B02F3504E26F4504D22F4
:10036000000E032247504A02F3504E26F4504D220D
:10037000000E026A0322022245504B02F3504D2622
:10038000F4500322000E022245504A02F350032685
:10039000F4500222000E016A012247504902F35034
:1003A0004D26F4500322000E02220122465049023B
:1003B000F3500326F4500222000E01224550490258
:1003C000F3500226F4500122002A01BE05D04D361A
:1003D0000336023601360006000E4DAE0AD0032A5F
:1003E00002220122015005E1025003E1035001E124
:1003F000002A4CBE018E4CAE019E04D0006A016AF8
:10040000026A036A000C800ED8B2451A4A6A4B6A27
:1004100041C049F04550491A4050D8B4DCD0486E2C
:10042000006E4450D8B4E0D0485ED8B481D03DE3EB
:1004300045C04EF04E8E46C04DF047C04CF04B6A62
:10044000D8904E324D324C324B32482EF8D749AE0E
:1004500003D04A80DDD04A9048904A88EA6A430E29
:10046000E96EE9D04A9849BE0AD048A013D04E326E
:100470004D324C324B32002AD8B4C5D00BD04EBED0
:100480000CD0D8904B364C364D364E360006D8B48C
:10049000BAD0F5D74A8C6BD04A9C41C049F041AEE6
:1004A00002D04E8EA9D04E9EA7D044C048F044C082
:1004B00000F04050485E41C04EF04E8E42C04DF0BC
:1004C00043C04CF04B6AD8904E324D324C324B32D6
:1004D000482EF8D749AE03D04A829AD04A92489023
:1004E0004A8AEA6A470EE96EA6D04A9A49BE0AD0FD
:1004F00048A013D04E324D324C324B32002AD8B481
:1005000082D00BD04EBE0CD0D8904B364C364D36E8
:100510004E360006D8B477D0F5D74A8E28D04A9EFA
:1005200045C049F045AE02D04E8E66D04E9E64D096
:1005300045C04EF04E8E46C04DF047C04CF049AE1F
:1005400004D04E9E4A8464D04A944B6A4890EA6A2A
:10055000430EE96E70D049BE1CD041C049F048A09E
:1005600006D04E324D324C324B32002A4CE04BAE6C
:100570000BD04C2A09E14D2A07E14E2A05E14E3203
:100580004D324C32002A3FE04ABC86D74ABEC7D71C
:100590001CD0800E4E1A4EAE04D03AD045C049F061
:1005A0000AD041C049F04E5206E14D5204E14C528E
:1005B00002E1006A21D04EBE08D0D8904B364C36AE
:1005C0004D364E36002EF7D71ED049AE02D04E8E95
:1005D00013D04E9E11D044C000F045C04EF046C02E
:1005E0004DF047C04CF008D040C000F041C04EF084
:1005F00042C04DF043C04CF04EC001F04DC002F07F
:100600004CC003F034D0006A016A026A036A2FD03A
:100610004B6A4C1E4D1E4E1E4B1E4B2A05E14C2AAA
:1006200003E14D2A01E14E2A4AB015D74AB256D706
:100630004AB48AD7B3D7EF504C2605E34D2A03E1DD
:100640004E2AD8B44880ED52EF504D2603E34E2A8F
:10065000D8B44880ED52EF50EFBE01D0800A4E264C
:10066000D8B048804AB8FED64ABA3FD774D7000CF3
:100670008E0E006E1450005E15C002F016C001F020
:10068000028E005209E0D890025202E1015204E0C9
:1006900002320132002EF7D715AE05D0011E021E20
:1006A000012AD8B4022A000C232C01D003D0400E1A
:1006B000246E01D0246A010E225C24262450800975
:1006C000256E266A276EE7DC000C21500C0A05E037
:1006D000060A0BE0020A0FE013D0266A010E276E0D
:1006E000DADC020E226EA4DC11D0010E226E020EA4
:1006F000236EDADF0BD0266A100E276ECCDC06D014
:10070000010E266E21C027F0C6DC00D0000C0900C7
:10071000F6CF15F0F7CF16F0F5CF21F0D6DF15C0E4
:10072000F6FF16C0F7FF142EF2D7000C2150B608C2
:10073000216E036A22C025F0228ED8902232233205
:1007400024320332023201320032212EF6D725AE96
:100750000BD0001E011E021E031E002AD8B4012A5F
:10076000D8B4022AD8B4032A1AEF04F0006A016A46
:10077000026A036A296A2A6A2B6A2C6A285027109F
:10078000261025102CE0200E2D6ED8902136223612
:100790002336243629362A362B362C3628502C5C24
:1007A00008E127502B5C05E126502A5C02E1255028
:1007B000295C0FE32550295E2650D8A0263C2A5EEE
:1007C0002750D8A0273C2B5E2850D8A0283C2C5E70
:1007D000D88000360136023603362D2ED6D7EA6A87
:1007E000290EE96E000CE950196E18501B6E19E0C5
:1007F00017C047F016C046F015C045F014C044F0CD
:100800004B6A4A6A200E496E820E486E83DD03C031
:1008100017F002C016F001C015F000C014F01B2E36
:10082000E7D717C024F016C023F015C022F014C07B
:1008300021F07CD703C017F002C016F001C015F0FC
:1008400000C014F017AE0DD01906198A141E151E1B
:10085000161E171E142AD8B4152AD8B4162AD8B4CE
:10086000172A3B0E206E9A0E1F6ECA0E1E6E1D6A50
:100870000A0E1B6E1850D8B4192A17C024F016C0DF
:1008800023F015C022F014C021F020C028F01FC0B2
:1008900027F01EC026F01DC025F068DF0150EFCF05
:1008A00014F0ECCF15F0ECCF16F0ECCF17F00052AF
:1008B0000FE118281B5C0CE019500CE00F0B1B5CBF
:1008C00001E037E219BE35D019BC04D0200E2DD07E
:1008D000200E191619AA0CD0199A1850D8A4190666
:1008E0000050196E2D0E216EF0DE1950006E196A3F
:1008F00018501B5C0AE10050196E2E0E216EE5DEC9
:100900001950006E200E1916000E300E19AA0DD0C7
:10091000199A1850D8A419060050196E2D0E216E80
:10092000D4DE1950006E196A300E002600C021F086
:10093000CCDE20C024F01FC023F01EC022F01DC05A
:1009400021F0286A276A266A0A0E256E0FDF03C087
:1009500020F002C01FF001C01EF000C01DF01B2ED1
:100960008CD7000CF86AD09EEA6AE96A076A066AC0
:10097000056A046A0B6A0A6A096A086A0F6A0E6ADB
:100980000D6A0C6A136A126A116A106AC180C18208
:10099000C184C196C180C182C184C196C19CC29CE0
:1009A000C29EC19EC2809698C69A949A9488949644
:1009B000010EC66E000EC76ED190800ED56ECD6A48
:1009C000000ECA6E000ECB6E9484BD6A69EF00F013
:1009D000640E226E18EC00F0B9EF00F0640E226E87
:1009E00018EC00F0156A146A0B6A0A6A096A086A48
:1009F0004AD402C015F001C014F05BD402C017F055
:100A000001C016F015C025F014C024F017C027F05F
:100A100016C026F025C03DF024C03CF060DC00C0CC
:100A200030F001C031F002C032F003C033F003C037
:100A300047F002C046F001C045F000C044F00A0E85
:100A40004B6ED70E4A6E230E496E780E486E62DCEE
:100A500000C030F001C031F002C032F003C033F00A
:100A6000D88203C043F002C042F001C041F000C090
:100A700040F0476A466A200E456E840E446EC3DC21
:100A800003C007F002C006F001C005F000C004F08A
:100A900027C03DF026C03CF022DC03C02FF002C08E
:100AA0002EF001C02DF000C02CF02FC047F02EC05A
:100AB00046F02DC045F02CC044F0540E4B6EE30EB2
:100AC0004A6E250E496E7A0E486E24DC00C030F066
:100AD00001C031F002C032F003C033F02FC047F044
:100AE0002EC046F02DC045F02CC044F02FC04BF076
:100AF0002EC04AF02DC049F02CC048F00BDC00C0DD
:100B000034F001C035F002C036F003C037F003C046
:100B100047F002C046F001C045F000C044F0A20E0C
:100B20004B6EE70E4A6E3B0E496E6C0E486E8AECB9
:100B300001F0D88233C043F032C042F031C041F0FE
:100B400030C040F003C047F002C046F001C045F09D
:100B500000C044F058DC00C030F001C031F002C0E9
:100B600032F003C033F0D88203C043F002C042F039
:100B700001C041F000C040F0476A466A456A810EF4
:100B8000446E41DC03C01BF002C01AF001C019F032
:100B900000C018F0D88207C043F006C042F005C07C
:100BA00041F004C040F0476A466A480E456E830E25
:100BB000446E29DC00C030F001C031F002C032F0D8
:100BC00003C033F0AC0E476EC50E466E270E456E61
:100BD000710E446E2FC04BF02EC04AF02DC049F06C
:100BE0002CC048F08AEC01F0D8920A0E436ED70E62
:100BF000426E230E416E780E406E03C047F002C075
:100C000046F001C045F000C044F003EC02F033C0F0
:100C100047F032C046F031C045F030C044F003C068
:100C20004BF002C04AF001C049F000C048F08AEC25
:100C300001F000C030F001C031F002C032F003C05A
:100C400033F0D89203C043F002C042F001C041F03B
:100C500000C040F01BC047F01AC046F019C045F074
:100C600018C044F003EC02F003C00BF002C00AF01D
:100C700001C009F000C008F007C017F006C016F068
:100C800005C015F004C014F0F3DC3D6A01C03CF06F
:100C90006FEC01F003C00FF002C00EF001C00DF0C8
:100CA00000C00CF00BC017F00AC016F009C015F018
:100CB00008C014F0DDDC3D6A01C03CF06FEC01F0CF
:100CC00003C013F002C012F001C011F000C010F018
:100CD000010E226E236EE8DC180EF66E000EF76E23
:100CE000040E146E14DD890EE96E0FC017F00EC0ED
:100CF00016F00DC015F00CC014F0030E186E73DD65
:100D0000200E216EE2DC010E226E020E236ECCDC80
:100D1000240EF66E000EF76E040E146EF8DC890ECB
:100D2000E96E13C017F012C016F011C015F010C014
:100D300014F0030E186E57DD200E216EC6DCC80EAF
:0A0D4000226E18EC00F04ED60300FE
:020000040030CA
:0E00000000210D0E000180000FC00FE00F4028
:00000001FF
;PIC18F452
;CRC=0F75  CREATED="09-Þub-14 15:33"
