:100000000C9462000C948A000C948A000C948A0070
:100010000C948A000C948A000C948A000C948A0038
:100020000C948A000C948A000C948A000C948A0028
:100030000C948A000C948A000C948A000C948A0018
:100040000C94C1030C948A000C94B5000C948A00A3
:100050000C948A000C948A000C948A000C948A00F8
:100060000C948A000C948A000000000024002700F1
:100070002A0000000000250028002B0000000000DE
:1000800023002600290004040404040404040202DA
:100090000202020203030303030301020408102007
:1000A0004080010204081020010204081020000012
:1000B0000007000201000003040600000000000029
:1000C0000000580211241FBECFEFD8E0DEBFCDBF25
:1000D00011E0A0E0B1E0E2EFFAE002C005900D927D
:1000E000AA31B107D9F711E0AAE1B1E001C01D9230
:1000F000AA3BB107E1F710E0C4ECD0E004C02297BE
:10010000FE010E947305C23CD107C9F70E948C0012
:100110000C9477050C9400000E9455048EE991E040
:1001200040E855E260E070E00E94F2008DE061E09E
:100130000E948F048EE991E060E071E00E94B603B6
:100140008DE061E00E94B50464EF71E080E090E032
:100150000E942F048DE060E00E94B50464EF71E01E
:1001600080E090E00E942F04EBCF1F920F920FB619
:100170000F9211242F933F934F935F936F937F932D
:100180008F939F93AF93BF93EF93FF934091C600DC
:10019000E0919A01F0919B01CF01019660E870E037
:1001A0000E9428059C0180919C0190919D01281737
:1001B000390739F0E65EFE4F408330939B01209370
:1001C0009A01FF91EF91BF91AF919F918F917F9194
:1001D0006F915F914F913F912F910F900FBE0F90B4
:1001E0001F9018955F926F927F928F929F92AF921D
:1001F000BF92CF92DF92EF92FF920F931F93CF9314
:10020000DF93EC015A016B0181E4A81682E4B80681
:100210008FE0C80680E0D80608F077C060E874E890
:100220008EE190E0A60195010E943B0539014A014B
:1002300008946108710881089108969487947794CE
:100240006794A40193012F5F3F4F4F4F5F4F74E0BE
:10025000220F331F441F551F7A95D1F760E074E2D7
:1002600084EF90E00E943B05CA01B9012FEF30E016
:1002700040E050E00E940905A60195010E943B055F
:100280008FEF90E0821B930B181619061CF4522E68
:10029000509402C0522E539460E079E08DE390E0D8
:1002A000A60195010E943B0521503040404050403E
:1002B00056954795379527952F5F3F4F4F4F5F4F87
:1002C00093E0220F331F441F551F9A95D1F760E02A
:1002D00074E284EF90E00E943B05CA01B9012FEF60
:1002E00030E040E050E00E940905A60195010E941F
:1002F0003B058FEF90E0821B930B1816190614F440
:10030000209501C02F5F2515F0F4E885F98581E07F
:1003100090E00A8802C0880F991F0A94E2F7808350
:1003200060E079E08DE390E0A60195010E943B0535
:10033000215030404040504056954795379527957D
:10034000822F232F05C0E885F9851082862D272D61
:10035000EC81FD812083EE81FF818083EA85FB852E
:10036000208141E050E0CA010E8402C0880F991F2D
:100370000A94E2F7282B2083EA85FB852081CA01B5
:100380000F8402C0880F991F0A94E2F7282B20835C
:10039000EA85FB858081088802C0440F551F0A94B6
:1003A000E2F7842B8083DF91CF911F910F91FF9013
:1003B000EF90DF90CF90BF90AF909F908F907F9005
:1003C0006F905F900895DC011296ED91FC91139768
:1003D000E058FF4F8191919180589F4F208131814A
:1003E000821B930B60E870E00E9428050895DC01F1
:1003F0001296ED91FC911397EE57FF4F20813181BA
:1004000092918291E058F0408217930719F42FEFF0
:100410003FEF05C0E20FF31F8081282F30E0C901B4
:100420000895CF93DF93DC011296ED91FC91139721
:10043000EF01CE57DF4F48815981E058FF4F80814F
:100440009181E058F0408417950719F42FEF3FEFA2
:100450000CC0E40FF51F2081CA01019660E870E02E
:100460000E9428059983888330E0C901DF91CF91EC
:100470000895DC011296ED91FC911397EE57FF4F12
:1004800080819181929382930895FC01A085B1852A
:1004900021898C9190E0022E02C0959587950A944F
:1004A000E2F780FFF6CF0484F585E02D60830895A0
:1004B0008BE091E090939F0180939E018AE191E00F
:1004C0009093A1018093A00185EC90E09093A3010B
:1004D0008093A20184EC90E09093A5018093A40105
:1004E00080EC90E09093A7018093A60181EC90E0CE
:1004F0009093A9018093A80186EC90E09093AB01C2
:100500008093AA0184E08093AC0183E08093AD01E5
:1005100087E08093AE0185E08093AF0181E0809316
:10052000B00108950F931F93CF93DF938C01EB01DC
:1005300009C02196D801ED91FC910190F081E02D48
:10054000C801099568816623A1F7DF91CF911F91BA
:100550000F910895EF92FF920F931F93CF93DF9324
:100560008C017B01EA010CC0D7016D917D01D8019E
:10057000ED91FC910190F081E02DC8010995219742
:10058000209791F7DF91CF911F910F91FF90EF90FE
:100590000895DC01ED91FC910280F381E02D099535
:1005A00008952F923F924F925F926F927F928F9217
:1005B0009F92AF92BF92CF92DF92EF92FF920F93F2
:1005C0001F93DF93CF93CDB7DEB7A0970FB6F89404
:1005D000DEBF0FBECDBF1C016A017B014115510575
:1005E0006105710549F440E350E060E070E020E00F
:1005F00030E00E94690354C0882499245401422E9B
:1006000055246624772401E010E00C0F1D1F080D0F
:10061000191DC701B601A30192010E943B05F80113
:1006200060830894811C911CA11CB11CC701B601F8
:10063000A30192010E943B05C901DA016C017D0111
:10064000C114D104E104F104F1F681E0E82EF12CAB
:10065000EC0EFD1EE80CF91C3E010894611C711C97
:10066000D501C4010197A109B1096C01C818D908C5
:1006700014C0F601EE0DFF1D40814A3010F4405DBC
:1006800001C0495C50E060E070E0C10120E030E072
:100690000E9469030894E108F1086E147F0449F789
:1006A000A0960FB6F894DEBF0FBECDBFCF91DF91FD
:1006B0001F910F91FF90EF90DF90CF90BF90AF9080
:1006C0009F908F907F906F905F904F903F902F9072
:1006D0000895EF92FF920F931F93CF93DF93EC0156
:1006E0007A018B012115310541F4E881F9810190EE
:1006F000F081E02D642F09951BC02A303105B1F43B
:1007000077FF10C04DE250E060E070E020E030E0A4
:100710000E94690310950095F094E094E11CF11C8F
:10072000011D111DCE01B801A7012AE00E94D102CE
:10073000DF91CF911F910F91FF90EF9008950F934C
:100740001F938C014DE050E060E070E020E030E06D
:100750000E946903C8014AE050E060E070E020E0D8
:1007600030E00E9469031F910F9108950F931F932A
:100770008C010E94C902C8010E949F031F910F9122
:1007800008951F920F920FB60F9211242F933F934B
:100790008F939F93AF93BF938091B5019091B601D2
:1007A000A091B701B091B8013091B9010196A11D96
:1007B000B11D232F2D5F2D3720F02D570196A11D40
:1007C000B11D2093B9018093B5019093B601A09318
:1007D000B701B093B8018091B1019091B201A0919D
:1007E000B301B091B4010196A11DB11D8093B10177
:1007F0009093B201A093B301B093B401BF91AF91B4
:100800009F918F913F912F910F900FBE0F901F904E
:1008100018959FB7F8942091B1013091B2014091A1
:10082000B3015091B40186B5A89B06C08F3F21F05B
:100830002F5F3F4F4F4F5F4F9FBF542F432F322F9C
:100840002227280F311D411D511D82E0220F331F29
:10085000441F551F8A95D1F7B901CA010895EF9237
:10086000FF920F931F93CF93DF937B018C010E9424
:100870000904EB010EC00E9409046C1B7D0B685E2D
:100880007340C8F30894E108F10801091109C8513F
:10089000DC4FE114F1040105110569F7DF91CF91F7
:1008A0001F910F91FF90EF900895789484B5826026
:1008B00084BD84B5816084BD85B5826085BD85B504
:1008C000816085BDEEE6F0E0808181608083E1E8B3
:1008D000F0E0808182608083808181608083E0E8B5
:1008E000F0E0808181608083E1EBF0E080818460D2
:1008F0008083E0EBF0E0808181608083EAE7F0E0D4
:100900008081846080838081826080838081816037
:1009100080838081806880831092C1000895482F71
:1009200050E0CA0186569F4FFC0124914A575F4F01
:10093000FA0184918823C1F0E82FF0E0EE0FFF1F49
:10094000E859FF4FA591B491662341F49FB7F894FD
:100950008C91209582238C939FBF08959FB7F89424
:100960008C91822B8C939FBF0895482F50E0CA0131
:1009700082559F4FFC012491CA0186569F4FFC016E
:1009800034914A575F4FFA019491992309F440C07A
:10099000222331F1233021F4809180008F7705C02C
:1009A000243031F4809180008F7D8093800018C0C6
:1009B000213019F484B58F7704C0223021F484B536
:1009C0008F7D84BD0DC0263021F48091B0008F77DB
:1009D00005C0273029F48091B0008F7D8093B0004E
:1009E000E92FF0E0EE0FFF1FEE58FF4FA591B491F5
:1009F000662341F49FB7F8948C91309583238C93B0
:100A00009FBF08959FB7F8948C91832B8C939FBFC1
:100A10000895629FD001739FF001829FE00DF11D48
:100A2000649FE00DF11D929FF00D839FF00D749F68
:100A3000F00D659FF00D9927729FB00DE11DF91F14
:100A4000639FB00DE11DF91FBD01CF011124089571
:100A500097FB092E07260AD077FD04D02ED006D0AA
:100A600000201AF4709561957F4F0895F6F79095E0
:100A700081959F4F0895A1E21A2EAA1BBB1BFD0171
:100A80000DC0AA1FBB1FEE1FFF1FA217B307E4076D
:100A9000F50720F0A21BB30BE40BF50B661F771FC5
:100AA000881F991F1A9469F76095709580959095A5
:100AB0009B01AC01BD01CF010895AA1BBB1B51E1F5
:100AC00007C0AA1FBB1FA617B70710F0A61BB70BBE
:100AD000881F991F5A95A9F780959095BC01CD0163
:100AE0000895EE0FFF1F0590F491E02D0994F894FE
:020AF000FFCF36
:100AF20052656164792E000000000045029202AA4C
:0A0B020002E30111023902F70100BD
:00000001FF
