:1000000000308A0051280000FF00030E8301A10088
:100010000A08A0008A010408A2007708A300780853
:10002000A4007908A5007A08A6007B08A70083131E
:1000300083128C308400001D1F280C1938288D3045
:100040008400001C25280D183B2822088400230862
:10005000F7002408F8002508F9002608FA00270808
:10006000FB0020088A00210E8300FF0E7F0E09008E
:100070008A110A123E288A110A124528A80A28085D
:1000800086000C118A110A122528A808031D4A2887
:100090000130A800A803280886000D108A110A1252
:1000A0002528840183131F30830583161F149F1492
:1000B0001F159F118312A801831609120030F80042
:1000C000831292000030831692001F149F141F1594
:1000D0009F1183121F10831686000730870083123A
:1000E000860183160C150D14C03083128B04970102
:1000F000063097009D0105309D00960195019C01F9
:060100009B018128630051
:02400E00393F38
:00000001FF
;PIC16F877
