:1000000000308A0073280000FF00030E8301A10066
:100010000A08A0008A010408A2007708A300780853
:10002000A4007908A5007A08A6007B08A70083131E
:1000300083120B1E1D288B183028220884002308E9
:10004000F7002408F8002508F9002608FA00270818
:10005000FB0020088A00210E8300FF0E7F0E09009E
:100060008A110A1248282B308400831300080319D0
:1000700047280130F800F701F70B3C28F80B3B2824
:100080004A30F700F70B42284528800B3928003406
:1000900086140430AA00FA30AB003320AA0B4B2898
:1000A00086100C30AA00FA30AB003320AA0B53287C
:1000B000A8012808093C031C6F2886140230AA00F6
:1000C000FA30AB003320AA0B602886100230AA0059
:1000D000FA30AB003320AA0B6828A80A59288B10E5
:1000E0008A110A121D28840183131F308305831689
:1000F0001F149F141F159F11FF308312A900831630
:10010000091283129412A9122908831687008312F8
:1001100029162908831687008312A9112908831636
:1001200087000130831294000030831694008312FC
:100130009001F80092000030831692001F149F1463
:100140001F159F1183121F10291529088316870078
:1001500083129701A91429088316870083129D0131
:1001600001308316860083128601831601138312E1
:0A0170000B16C0308B04BB2863009F
:02400E00393F38
:00000001FF
;PIC16F877
