:1000000000308A004C280000FF00030E8301A1008D
:100010000A08A0008A010408A2007708A300780853
:10002000A4007908A5007A08A6007B08A70083131E
:1000300083128C308400001D1F280C1938288D3045
:100040008400001C25280D183B2822088400230862
:10005000F7002408F8002508F9002608FA00270808
:10006000FB0020088A00210E8300FF0E7F0E09008E
:100070008A110A123E288A110A1244280130860683
:100080000C118A110A1225288F018E010230860672
:100090000D108A110A122528840183131F3083054D
:1000A00083161F149F141F159F1109120030F800AA
:1000B000831292000030831692001F149F141F15A4
:1000C0009F1183121F108316860001308700831250
:1000D000860183160C150D14C03083128B040A3070
:1000E00097009D00833090009601053095009C019B
:0C00F0000A309B008F018E017C28630009
:02400E00393F38
:00000001FF
;PIC16F877
