:1000000000308A00D12900000A108A100A118207E4
:1000100028340C34013406340A108A100A1182077D
:100020000C3442346134733469346C3461346E346A
:1000300020345434753473343D3400342930840012
:1000400083130008031932280130F800F701F70B79
:100050002728F80B26284A30F700F70B2D283028E0
:10006000800B24280034300EF039F7000F300605DD
:1000700077048600000006143D2806100034861020
:10008000F030831686008312061500000614000067
:100090000608060E0F39B000061000000614000016
:1000A0000608060E0F39AF000610003083168600D2
:1000B0008312300EF700F030F70577082F04F800B0
:1000C0007808AF00AF1B40282D1C86102D18861411
:1000D00000000611000006102E0EAF000F30AF0515
:1000E0002F08B00033202E080F39AF00B0003320A6
:1000F0000034003083168600831286100611061025
:100100000F30A9001E200130A1002108033C031C70
:1001100091280330B00033200530A9001E20A10A29
:1001200085280230B0003320A1012108033C031CC4
:10013000A22821080420A200AD012208AE003F2021
:10014000A10A95288A110A12F2292A0BA828AB289D
:100150004030AB00AC28AB0101302902AB072B08C3
:100160008038AC00AD012C08AE003F2000342808D8
:100170000C3A0319C228063A0319CA28023A03198D
:10018000D028D528AD010130AE003F200230A900B3
:100190001E20DB280130A9000230AA00A520DB28A0
:1001A000AD011030AE003F20DB280130AD00280843
:1001B000AE003F20DB28003488010816081CE52823
:1001C0001430A9001E200130A000881CEC28143037
:1001D000A9001E200230A000081DF3281430A90039
:1001E0001E200330A000881DFA281430A9001E200C
:1001F0000A30A00008128816081C03291430A90030
:100200001E200430A000881C0A291430A9001E20DA
:100210000530A000081D11291430A9001E20063049
:10022000A000881D18291430A9001E200B30A00042
:1002300088120817081C21291430A9001E20073035
:10024000A000881C28291430A9001E200830A00016
:10025000081D2F291430A9001E200930A000881D78
:1002600036291430A9001E200C30A000081388176E
:10027000081C3F291430A9001E200E30A000881C45
:1002800045291430A9001E20A001081D4C29143056
:10029000A9001E200F30A000881D53291430A9008A
:1002A0001E200D30A00088132008F8000034290813
:1002B000F801280203185F292808F7006B29F701C5
:1002C0000830AA00A80DF70D290877020318F700D7
:1002D000F80DAA0B622900342030231E3030A40010
:1002E0002208F700A21F7B29F709F70A7708A20066
:1002F0002D30A400A3172208A8006430A9005721BC
:100300007708A20030307807A5002208A8000A303C
:10031000A900572130307707A70030307807A600B2
:100320002408F700A31D9629A31F2311231AA3292C
:10033000A31FBE292319BE297708A500A318BE292B
:100340007708A600BE2930302502031DBE29770894
:10035000A5002030A400A31DB1292311A314A31FBD
:10036000A31030302602031DBE297708A6002030D6
:10037000A500A31DB129A310A31F2310231DC3296A
:100380002408A800B720A31CC8292508A800B72066
:10039000231CCD292608A800B7202708A800B720CD
:1003A0000034840183131F30830583161F149F14A8
:1003B0001F159F118312A001831609128312900149
:1003C0000030F80092000030831692001F149F1432
:1003D0001F159F1183121F10831686000F3088008F
:1003E00083127928A10121080C20A10AF700A80096
:1003F000B7200D302102031DF3290D30A900013073
:10040000AA00A520DC207808093C03180F2ADC206C
:100410007808A100A2001F30A3006C21192ADC205B
:100420007808A100A2001F30A3006C212030A80092
:06043000B720FD29630066
:02400E00393F38
:00000001FF
;PIC16F877
