:100000000C9462000C948A000C948A000C948A0070
:100010000C948A000C948A000C948A000C948A0038
:100020000C948A000C948A000C948A000C948A0028
:100030000C948A000C948A000C948A000C948A0018
:100040000C941A020C948A000C948A000C948A0076
:100050000C948A000C948A000C948A000C948A00F8
:100060000C948A000C948A000000000024002700F1
:100070002A0000000000250028002B0000000000DE
:1000800023002600290004040404040404040202DA
:100090000202020203030303030301020408102007
:1000A0004080010204081020010204081020000012
:1000B0000007000201000003040600000000000029
:1000C0000000950111241FBECFEFD4E0DEBFCDBFED
:1000D00011E0A0E0B1E0EEE3F6E002C005900D9281
:1000E000A632B107D9F711E0A6E2B1E001C01D9236
:1000F000AD33B107E1F710E0C4ECD0E004C02297C3
:10010000FE010E941903C23CD107C9F70E94D60123
:100110000C941D030C940000AF92BF92CF92DF921B
:10012000EF92FF920F931F93CF93DF938C01B62E24
:10013000FC018381642F0E94CA02F801848160E07F
:100140000E94CA02F80182818823C9F168017801FE
:10015000C4E0D0E0AB2CBB24B5010C2E02C07595D9
:1001600067950A94E2F76170F70186810E94CA02DE
:100170000894E11CF11C2196C830D10569F7F801FB
:10018000858161E00E94CA02F801858160E00E94D9
:10019000CA02C0E0D0E0B5010C2E02C0759567958B
:1001A0000A94E2F76170F60186810E94CA022196E4
:1001B0000894C11CD11CC430D10569F718C078015E
:1001C000C0E0D0E0CB2CDD24B6010C2E02C075952A
:1001D00067950A94E2F76170F70186810E94CA026E
:1001E00021960894E11CF11CC830D10569F7F8018B
:1001F000858161E00E94CA02F801858160E00E9469
:10020000CA02DF91CF911F910F91FF90EF90DF9085
:10021000CF90BF90AF90089541E00E948C00089568
:1002200040E00E948C000895DF93CF93CDB7DEB7F6
:1002300028970FB6F894DEBF0FBECDBF362FFA0158
:10024000AE014F5F5F4F6DE171E028E0DB010D9083
:10025000BD01DA010D92AD012150C1F7EE0FFF1F74
:10026000EC0FFD1F6181630F60680E9410012896EA
:100270000FB6F894DEBF0FBECDBFCF91DF910895CA
:1002800061E00E94100180ED97E00E9462020895F3
:100290008F929F92AF92CF92EF920F934C01862F45
:1002A00067E171E0F4017183608391E0928383835D
:1002B000448325830683E782C086A18661E00E948D
:1002C000AA02F401848161E00E94AA02F4018581FE
:1002D00061E00E94AA02F401868161E00E94AA0204
:1002E000F401878161E00E94AA02F401808561E047
:1002F0000E94AA02F401818561E00E94AA02C40161
:1003000068E20E941001C4016CE00E941001C40167
:1003100066E00E941001C4010E9440010F91EF901D
:10032000CF90AF909F908F900895AF92CF92EF9221
:100330000F9386E291E06CE04BE02AE005E074E088
:10034000E72E53E0C52E32E0A32E0E9448010F9104
:10035000EF90CF90AF9008950F931F938DE061E0E1
:100360000E94AA028DE061E00E94CA0206E211E04A
:10037000C8010E944001C80160E070E040E050E028
:100380000E941401C80160E071E00E941202C801DD
:1003900060E070E041E050E00E941401C80167E0B5
:1003A00071E00E9412021F910F9108950E94700245
:1003B0000E94AC01FFCF0F931F93CF93DF938C016B
:1003C000EB0109C02196D801ED91FC910190F081DB
:1003D000E02DC801099568816623A1F7DF91CF91CF
:1003E0001F910F910895EF92FF920F931F93CF9358
:1003F000DF938C017B01EA010CC0D7016D917D0177
:10040000D801ED91FC910190F081E02DC801099592
:100410002197209791F7DF91CF911F910F91FF9036
:10042000EF900895DC01ED91FC910280F381E02DC5
:10043000099508951F920F920FB60F9211242F93D2
:100440003F938F939F93AF93BF9380913801909187
:100450003901A0913A01B0913B0130913C010196E4
:10046000A11DB11D232F2D5F2D3720F02D57019693
:10047000A11DB11D20933C01809338019093390157
:10048000A0933A01B0933B018091340190913501E2
:10049000A0913601B09137010196A11DB11D809345
:1004A000340190933501A0933601B0933701BF9189
:1004B000AF919F918F913F912F910F900FBE0F9011
:1004C0001F901895019759F0FC01EE0FFF1FEE0FDA
:1004D000FF1F32978FB7F8943197F1F78FBF0895C8
:1004E000789484B5826084BD84B5816084BD85B50F
:1004F000826085BD85B5816085BDEEE6F0E08081D6
:1005000081608083E1E8F0E0808182608083808187
:1005100081608083E0E8F0E0808181608083E1EBAE
:10052000F0E0808184608083E0EBF0E08081816096
:100530008083EAE7F0E0808184608083808182604C
:100540008083808181608083808180688083109235
:10055000C1000895282F30E0C90186569F4FFC0145
:1005600094912A573F4FF9018491882391F0E82F05
:10057000F0E0EE0FFF1FE859FF4FA591B4916623FD
:1005800029F48C91909589238C9308958C91892BD3
:100590008C930895482F50E0CA0182559F4FFC016B
:1005A0002491CA0186569F4FFC0194914A575F4F90
:1005B000FA0134913323D1F1222331F1233021F494
:1005C000809180008F7705C0243031F480918000C5
:1005D0008F7D8093800018C0213019F484B58F7707
:1005E00004C0223021F484B58F7D84BD0DC0263037
:1005F00021F48091B0008F7705C0273029F48091D5
:10060000B0008F7D8093B000E32FF0E0EE0FFF1F6E
:10061000EE58FF4FA591B491662329F48C919095E3
:1006200089238C9308958C91892B8C930895EE0FD8
:0E063000FF1F0590F491E02D0994F894FFCF80
:10063E0048656C6C6F2C00436F646550726F6A6511
:10064E00637400000000000C01DB01F301000040A8
:06065E000014005400002E
:00000001FF
